:060000000A128A11122809
:10000800FE00030E83160313CF000408D0000A086D
:10001800D1007F08D2000A128A15CD2E0A128A1141
:10002800152883120313EE01EF018313A030840017
:10003800C0300A128A1553200A128A1183010A1243
:100048008A15192D831203133D088039C20042080E
:10005800C7003D08C2004207C3004308CD00BC1FCB
:100068003628372838284D144D0803193C283D28D0
:100078004C284D0A031D412842284A280030BD005B
:100088000030BC000030BB000030BA00BC17542858
:100098000030BD000030BC000030BB000030BA00AA
:1000A80041088039C2004208C7064108C200420719
:1000B800C3004308CC00C01F6228632864284C147E
:1000C8004C0803196828692878284C0A031D6D28EC
:1000D8006E2876280030C1000030C0000030BF0014
:1000E8000030BE00C01780280030C1000030C000BA
:1000F8000030BF000030BE004C0803198428852852
:100108008A284D08031D89288A2893280030BD00B5
:100118000030BC000030BB000030BA00862B3A0823
:10012800C2004208F00040080A128A15E4200A12A8
:100138008A11710883120313D3007008D200520881
:10014800C200C301C401C5014508CB004408CA0068
:100158004308C9004208C8005308C200C301C401CB
:10016800C5014508D1004408D0004308CF00420823
:10017800CE003B08C2004208F0003F080A128A1568
:10018800E4200A128A11710883120313D30070083D
:10019800D2005208C200C301C401C5014208C80701
:1001A800430803110318013E0319DB28C907440853
:1001B80003110318013E0319E228CA074508031171
:1001C8000318013E0319E928CB075308C200C301ED
:1001D800C401C5014208CE07430803110318013EB4
:1001E8000319F728CF07440803110318013E031920
:1001F800FE28D007450803110318013E03190529F5
:10020800D1073C08C2004208F0003E080A128A15CD
:10021800E4200A128A11710883120313D3007008AC
:10022800D2005208C200C301C401C5014208C80770
:10023800430803110318013E03192329C907440879
:1002480003110318013E03192A29CA074508031197
:100258000318013E03193129CB075308C200C30113
:10026800C401C5014208CE07430803110318013E23
:1002780003193F29CF07440803110318013E031946
:100288004629D007450803110318013E03194D29D3
:10029800D1070830C2000310C80DC90DCA0DCB0D17
:1002A800C20B4F293B08C2004208F0003E080A1260
:1002B8008A15E4200A128A11710883120313D300E5
:1002C8007008D2005208C2005308C300C401C50117
:1002D8004208C807430803110318013E031975298A
:1002E800C907440803110318013E03197C29CA07EA
:1002F800450803110318013E03198329CB073A085F
:10030800C2004208F0003F080A128A15E4200A12C7
:100318008A11710883120313D3007008D20052089F
:10032800C2005308C300C401C5014208C8074308F6
:1003380003110318013E0319A229C9074408031130
:100348000318013E0319A929CA0745080311031810
:10035800013E0319B029CB070830C2000310C80DAD
:10036800C90DCA0DCB0DC20BB2293A08C20042080A
:10037800F0003E080A128A15E4200A128A11710850
:1003880083120313D3007008D2005208C200530826
:10039800C300C401C5014208C80743080311031874
:1003A800013E0319D829C907440803110318013E5F
:1003B8000319DF29CA07450803110318013E031969
:1003C800E629CB073B08C2004208F00040080A12A1
:1003D8008A15E4200A128A11710883120313D300C4
:1003E8007008D2005208C2005308C300C401C501F6
:1003F8004208CE07430803110318013E0319052AD2
:10040800CF07440803110318013E03190C2AD0072B
:10041800450803110318013E0319132AD1073C08A4
:10042800C2004208F0003F080A128A15E4200A12A6
:100438008A11710883120313D3007008D20052087E
:10044800C2005308C300C401C5014208CE074308CF
:1004580003110318013E0319322ACF074408031178
:100468000318013E0319392AD00745080311031858
:10047800013E0319402AD1073C08C2004208F00097
:1004880040080A128A15E4200A128A117108831298
:100498000313D3007008D2005208C2005308C300E7
:1004A800C401C50108300310C20DC30DC40DC50D2C
:1004B800FF3E031D572A4208CE07430803110318BD
:1004C800013E0319682ACF07440803110318013EA7
:1004D80003196F2AD007450803110318013E0319B1
:1004E800762AD1074808C2004908C3004A08C40050
:1004F8004B08C50018300310C50CC40CC30CC20C43
:10050800FF3E031D7F2A4208CE0743080311031844
:10051800013E0319902ACF07440803110318013E2E
:100528000319972AD007450803110318013E031938
:100538009E2AD1070830C2000310C80DC90DCA0D84
:10054800CB0DC20BA02A4D084C07C200C301C30D36
:100558004208823ED20043080318013EFF3ED30002
:10056800D22A0130C2000310CE0DCF0DD00DD10D0F
:10057800C20BB72ACB1FC12AC22AC32A4E14013084
:10058800C2000310C80DC90DCA0DCB0DC20BC52A78
:10059800FF30D2070318D30AFF30D307D01FD52A5C
:1005A800D62AB52ACC01CB1FDA2ADB2AF72AFF3054
:1005B8004805C200FF304905C300FF304A05C400A2
:1005C8007F304B05C5004508440443044204031921
:1005D800EE2AEF2AF22ACC01CC0AF72A4E1CF52A79
:1005E800F62AF72AEF2A4C080319FB2AFC2A2D2B96
:1005F8000130CE07003003180130CF070030031850
:100608000130D007003003180130D107511C0D2BE1
:100618000E2B2D2B4E08C2004F08C3005008C400F3
:100628005108C5000130C600450DC50CC40CC30CEB
:10063800C20CC60B182B4508D1004408D00043084B
:10064800CF004208CE000130D2070318D30A003089
:10065800D3075308803AFF0080307F02031D362BF2
:10066800FF305202031C392B3A2B452B7F30831263
:100678000313D1008030D0000030CF000030CE000E
:100688007A2B831203135308803AFF0080307F02CD
:10069800031D502B013052020318532B542B602B8F
:1006A800003083120313D1000030D0000030CF0097
:1006B8000030CE00C7017A2B831203135208C20000
:1006C8004208CD00FF30CE05FF30CF057F30D00582
:1006D8000030D1054D1C712B722B732BD0174D0890
:1006E800C2000310420CC3004308D1004708C200EF
:1006F8004208D1045108BD005008BC004F08BB0097
:100708004E08BA0008008312031357088039DC002A
:100718005C08E4005708DC005C07DD005D08E600C3
:10072800D61F972B982B992B6614660803199D2BB7
:100738009E2BAE2B660A031DA22BA32BAB2B0030DE
:10074800D7000030D6000030D5000030D400D617CE
:10075800D701B62B0030D7000030D6000030D500C6
:100768000030D4005B088039DC005C08E5006508CF
:1007780064060319C02BC12BC22B64175B08DC006D
:100788005C07DD005D08E500DA1FCB2BCC2BCD2BF9
:10079800651465080319D12BD22BE22B650A031DBA
:1007A800D62BD72BDF2B0030DB000030DA000030EF
:1007B800D9000030D800DA17DB01EA2B0030DB0063
:1007C8000030DA000030D9000030D8006608650231
:1007D8000318EF2BF02B342C641FF32BF42BF82B7E
:1007E8008030DC005C08E4066608DC005C08E70092
:1007F8006508DC005C08E6006708DC005C08E500CA
:100808005408DC005C08E7005808DC005C08D400E9
:100818006708DC005C08D8005508DC005C08E700C5
:100828005908DC005C08D5006708DC005C08D900C2
:100838005608DC005C08E7005A08DC005C08D600B3
:100848006708DC005C08DA005708DC005C08E70091
:100858005B08DC005C08D7006708DC005C08DB008C
:10086800E7016508DC00DD015D08DF0066085C0261
:10087800DE00031CDF035F08803AFF0080307F0240
:10088800031D482C1A305E02031C4B2C4C2C892C5F
:10089800831203135708560455045404031D552C9A
:1008A800572C0130582C0030DC005C08E700003081
:1008B800D7000030D6000030D5000030D4006508DD
:1008C800DC005C08E600912C671C6B2C6C2C752CEA
:1008D8006708DC0003105C0C0138DD005D08E700E8
:1008E800772C0310E70C541C7A2C7B2C7C2CE717F4
:1008F8000130DC00570DD70CD60CD50CD40CDC0B12
:100908007E2C0130DC005C08E607831203136508BF
:100918006602031C902C912C682C641B942C952C3B
:10092800E02C6608031D992C9A2CA32C0030D700C4
:100938000030D6000030D5000030D4000E2E580804
:10094800D407590803110318013E0319AC2CD50725
:100958005A0803110318013E0319B32CD6075B0884
:1009680003110318013E0319BA2CD707571CBD2CD5
:10097800BE2C942D671CC12CC22CCB2C6708DC0024
:1009880003105C0C0138DD005D08E700CD2C031076
:10099800E70C541CD02CD12CD22CE7170130DC00EA
:1009A800570DD70CD60CD50CD40CDC0BD42C01303D
:1009B800DC005C08E607942D5708803AFF005B08C6
:1009C800803A7F02031DF22C5A085602031DF22CAE
:1009D80059085502031DF22C580854020318F52C27
:1009E800F62C4E2DFF30DC00FF30DD00FF30DE003E
:1009F800FF30DF005808E0005908E1005A08E2001B
:100A08005B08E3005408E0025508031C550F0D2D40
:100A18000E2DE1025608031C560F132D142DE20269
:100A28005708031C570F192D1A2DE3026008DC071D
:100A380061080318610F212D222DDD0762080318B4
:100A4800620F272D282DDE0763080318630ADF07C6
:100A58005F08D7005E08D6005D08D5005C08D400A2
:100A68008030DC005C08E406E709E70A6708031D34
:100A78003E2D3F2D5C2D0130D40700300318013086
:100A8800D507003003180130D607003003180130AD
:100A9800D7075C2D5808D4025908031C590FD502F2
:100AA8005A08031C5A0FD6025B08031C5B0FD702B7
:100AB8005708560455045404031D632D642D902DC6
:100AC8006708031D682D692D902D0030D700003070
:100AD800D6000030D5000030D4000E2E0130DC00E6
:100AE8000310D40DD50DD60DD70DDC0B742DE71FD3
:100AF8007E2D7F2D802D5414671C832D842D872DEA
:100B08000314E70D892D0310E70D660803198D2DD1
:100B18008E2D902D0130E602D61F932D942D722D27
:100B2800E501E71F982D992DA72D67087F3903192F
:100B38009E2D9F2DA22DE501E50AA72D541CA52D5C
:100B4800A62DA72D9F2D65080319AB2DAC2DE02DE3
:100B58000130D407003003180130D50700300318DE
:100B68000130D607003003180130D707571CBD2DB8
:100B7800BE2DE02D5408DC005508DD005608DE00C7
:100B88005708DF000130E0005F0DDF0CDE0CDD0CE4
:100B9800DC0CE00BC82D5F08D7005E08D6005D08A6
:100BA800D5005C08D400660A0319DB2DDC2DE02D86
:100BB8000130DC005C08E607660A0319E42DE52D20
:100BC800EA2D6608031DE92DEA2DF82D0030D7001F
:100BD8000030D6000030D5000030D4006608031D70
:100BE800F62DF72DF82DE401661CFB2DFC2DFE2DAE
:100BF800D617022E7F30DC005C08D6056608DC00BC
:100C080003105C0CDD005D08D700E41F0C2E0D2ED0
:100C18000E2ED71708008312031327088039A8005F
:100C28002808B1002708A8002807A9002908B80043
:100C3800A61F1F2E202E212E381438080319252E02
:100C4800262E362E380A031D2A2E2B2E332E003040
:100C5800A7000030A6000030A5000030A400A617A9
:100C6800A7013E2E0030A7000030A6000030A500E6
:100C78000030A40023088039A8002808B1062308FA
:100C8800A8002807A9002908B900A21F4C2E4D2E3C
:100C98004E2E391439080319522E532E632E390A51
:100CA800031D572E582E602E0030A3000030A200DE
:100CB8000030A1000030A000A217A3016B2E003065
:100CC800A3000030A2000030A1000030A0002308DB
:100CD800220421042004031D722E732E8C2E003052
:100CE800A7000030A6000030A5000030A400803026
:100CF800A6047F30A7043108A8002808A7042708FD
:100D0800A3002608A2002508A1002408A000EB2FB4
:100D18003808031D902E912E9A2E0030A300003023
:100D2800A2000030A1000030A000EB2F3808A80076
:100D3800A9012908AB0039082802AA00031CAB0343
:100D48002A087F3EB2002B080318013E003EB3007C
:100D58002708B0002608AF002508AE002408AD001B
:100D68000030A7000030A6000030A5000030A40025
:100D78000030B7000030B6000030B5000030B400D5
:100D8800B901102F39080319CA2ECB2EEB2E0130CA
:100D9800A8000310AD0DAE0DAF0DB00DA80BCD2EF4
:100DA8000130A8000310A40DA50DA60DA70DA80BD2
:100DB800D62EB71FE02EE12EE22E24140130A80013
:100DC8000310B40DB50DB60DB70DA80BE42E23080E
:100DD8003002031DF92E22082F02031DF92E2108C7
:100DE8002E02031DF92E20082D02031CFC2EFD2EB9
:100DF8000C2F37172008AD022108031C210FAE0263
:100E08002208031C220FAF022308031C230FB00281
:100E18000130A8002808B9071A303902031C152F19
:100E2800162FC62E30082F042E042D0403191D2F4B
:100E38001E2F3D2F34143D2F0130A8000310A40DA0
:100E4800A50DA60DA70DA80B222FB71F2C2F2D2FF0
:100E58002E2F24140130A8000310B40DB50DB60DC3
:100E6800B70DA80B302FFF30B2070318B30AFF30B5
:100E7800B307A61F402F412F202FB901B71F452FB9
:100E8800462F622FFF303405A800FF303505A90032
:100E9800FF303605AA007F303705AB002B082A043F
:100EA800290428040319592F5A2F5D2FB901B90AAB
:100EB800622F241C602F612F622F5A2F39080319C3
:100EC800662F672F982F0130A407003003180130D0
:100ED800A507003003180130A607003003180130B9
:100EE800A707271C782F792F982F2408A8002508F2
:100EF800A9002608AA002708AB000130AC002B0D7A
:100F0800AB0CAA0CA90CA80CAC0B832F2B08A700C0
:100F18002A08A6002908A5002808A4000130B2075D
:100F28000318B30A0030B3073308803AFF00803053
:100F38007F02031DA12FFF303202031CA42FA52F0F
:100F4800B32FFF3083120313B2000030B300003018
:100F5800A7000030A6000030A5000030A4008312CE
:100F680003133308803AFF0080307F02031DBE2F31
:100F7800013032020318C12FC22FCF2F831203135F
:100F8800B201B3010030A7000030A6000030A50070
:100F98000030A400B101831203133208A800280806
:100FA800B800381CD82FD92FDB2FA617DF2F7F309A
:100FB800A8002808A6053808A8000310280CA900CE
:100FC8002908A7003108A8002808A704832E0800CC
:100FD800033083160317880089010330831603132F
:100FE8008500870188018312031385018801870121
:060FF8008B170B17080027
:10100000FF1B0A2883137F1883170008840A03191B
:10101000FF0A080008308A000408840A82070034A6
:10102000013400340A34003464340034E8340334C6
:1010300010342734253464342E3425346434203479
:101040005634003450344F34543431340034503436
:081050004F34543432340034F3
:10108E00CF308312031381000B110800CF3083126F
:10109E00031381000B11080064008001840A04060A
:1010AE000319003404065428831203130C131E086C
:1010BE00F100831603131E08F000080083160313B5
:1010CE00D4008312031307178316031354088312D5
:1010DE00031388008717193083160313D300D30B1D
:1010EE0076287928831203138713080083160313B7
:1010FE00D5008312031307138316031355088312A7
:10110E000313880087170B3083160313D400613046
:10111E00D300D30B9028D40B902895288312031359
:10112E0087130800F401F501701C9E289F28A5283E
:10113E007208F4070318F50A7308F5070130031057
:10114E00F20DF30DFF3E031DA62801300310F10C26
:10115E00F00CFF3E031DAD2870087104031DB82866
:10116E00B9289B287508F1007408F0000800831652
:10117E000313D8005803031DC528C628D2285608C5
:10118E007F3ED7005708D90059080A128A157D20CC
:10119E000A128A15E32802305806031DD728D828CC
:1011AE00E3285608BF3ED7005708D90059080A123F
:1011BE008A157D200A128A150800F800F401F5013F
:1011CE007008F200F3017208F6007308F700781C3D
:1011DE00F128F228F8287608F4070318F50A77089C
:1011EE00F50701300310F60DF70DFF3E031DF9282C
:1011FE000310F80C7808031D05290629EE2875083A
:10120E00F1007408F000080083160313D50024299A
:10121E000F088F3940388F003A290F088F39503810
:10122E008F003A290F088F3960388F003A297030B5
:10123E008F043A2970308F043A295508D300D4010F
:10124E005408003A03192C2921295308013A03198D
:10125E000F29033A03191429063A031919290C3ACE
:10126E0003191E2921290F14080083160313D80110
:10127E005B29831603135808550784005608031874
:10128E00560A83120313FF000A128A1500200A124F
:10129E008A150A128A1565200A128A1501308316DC
:1012AE000313D7005708D807580855078400560867
:1012BE000318560A83120313FF000A128A15002020
:1012CE000A128A15003A031D6D296E29402908005D
:1012DE0078087904031974297529A429FD01FD0ADA
:1012EE00832901300310F80DF90DFF3E031D7929F6
:1012FE000130FC007C08FD07F91F86298729782913
:10130E0079087B02031D8D2978087A02031C902927
:10131E00912997297808FA027908031CFB03FB022E
:10132E0001300310F90CF80CFF3E031D9829013013
:10133E00FD02031DA329A42987297B08F9007A0839
:10134E00F8000800F501F601700871040319B029C0
:10135E00B129E829F701F70ABF2901300310F00D72
:10136E00F10DFF3E031DB5290130F4007408F70797
:10137E00F11FC229C329B42901300310F50DF60D52
:10138E00FF3E031DC42971087302031DD029700886
:10139E007202031CD329D429DB297008F2027108CA
:1013AE00031CF303F302751401300310F10CF00C5F
:1013BE00FF3E031DDC290130F702031DE729E82952
:1013CE00C3297608F1007508F000080000300A12F3
:1013DE008A157D200A128A15343083160313D7001E
:1013EE00F130D600D60BF929D70BF92930300A1275
:1013FE008A157D200A128A150D3083160313D70025
:10140E00FB30D600D60B092AD70B092A30300A1228
:10141E008A157D200A128A151A3083160313D700F7
:10142E00F730D600D60B192AD70B192A1E2A3030C0
:10143E000A128A157D200A128A154130831603136B
:10144E00D600D60B282A2B2A38300A128A157D2070
:10145E000A128A150C300A128A157D200A128A1574
:10146E0001300A128A157D200A128A1506300A12D8
:10147E008A157D200A128A15080083160313D500DB
:10148E008112550803194C2A4D2A4F2A8111802AA0
:10149E005508031D532A542A802A8115802AF830B4
:1014AE008105A52AF8308105A52A0108F8390138E9
:1014BE008100A52A0108F83902388100A52A010801
:1014CE00F83903388100A52A0108F839043881005B
:1014DE00A52A0108F83905388100A52A0108F8392E
:1014EE0006388100A52A07308104A52AF830810527
:1014FE00A52A5508D300D4015408003A0319882AA6
:10150E007D2A5308003A0319562A023A0319592A1A
:10151E00063A03195C2A0C3A0319612A183A031980
:10152E00662A303A03196B2A603A0319702AC03AB8
:10153E000319752A7F3A03197A2A7D2A8B160B1105
:10154E00080083160313D700CB2A3F3083120313F0
:10155E009F05E72A831203131F083F3940389F0067
:10156E00E72A831203131F083F3980389F00E72AAA
:10157E00C030831203139F04E72A831203131F083C
:10158E003F3940389F00E72A5708D500D601560844
:10159E00003A0319D32AC42A5508003A0319AC2A73
:1015AE00013A0319B12A033A0319B82A013A031969
:1015BE00BF2AC42A1F12FF2A1F16FF2A1F12FF2A34
:1015CE00831603135308D500D6015608003A0319A3
:1015DE00F12AE52A5508003A0319E12A013A0319BE
:1015EE00E32AE52A9F120F2B9F160F2B9F120F2B0C
:1015FE005408D500D6015608003A0319072BFD2AC8
:10160E005508003A0319F92A013A0319FB2AFD2A53
:10161E009F17831203131F14831603130C178312C1
:10162E0003130C1308000310831203136A0D6B0DC2
:10163E0083160313C000400883120313ED006D08D8
:10164E00031D2A2B2B2B342B0030EB000030EA002D
:10165E000030E9000030E800B52B6808831603134C
:10166E00C00083120313690883160313C10083128B
:10167E0003136A0883160313C200831203136B0845
:10168E0083160313C3001F300310C30CC20CC10C0E
:10169E00C00CFF3E031D4B2B4008C40044088312B0
:1016AE000313EC00EA17FF30E805FF30E905FF30C1
:1016BE00EA050030EB059630ED02ED1F672B682B27
:1016CE00862B6D08803A973E03186E2B6F2B702B6E
:1016DE002B2B01300310EB0CEA0CE90CE80CFF3E4F
:1016EE00031D712B013083160313C00040088312B3
:1016FE000313ED07031D842B852B702BA52B203098
:10170E006D02031C8B2B8C2BA02B2B2B01308316E5
:10171E000313C000031083120313E80DE90DEA0D45
:10172E00EB0D83160313C00B912B013083120313A1
:10173E00ED026D08031DA42BA52B8D2B6C08031930
:10174E00A92BAA2BB52BE809E909EA09EB09E80A46
:10175E000319E90A0319EA0A0319EB0A08008316AA
:10176E0003134A08F0004B08F100F201F3010030B8
:10177E000A128A155F240A128A157308831203133C
:10178E00DB007208DA007108D9007008D8008316E1
:10179E0003134A084C02F0004B08031C4B0A4D027F
:1017AE00F100F201F30100300A128A155F240A12C9
:1017BE008A15730883120313A7007208A600710816
:1017CE00A5007008A4008316031347084802F00012
:1017DE004908031C4903F100F201F30100300A121B
:1017EE008A155F240A128A15730883120313A30045
:1017FE007208A2007108A1007008A0000A128A11D6
:10180E000F260A128A15831203132308C100220819
:10181E00C0002108BF002008BE008316031347082E
:10182E004502F0004608031C4603F100F201F301E5
:10183E0000300A128A155F240A128A157308831261
:10184E000313BD007208BC007108BB007008BA001B
:10185E000A128A1126200A128A15831203133D08D2
:10186E00D7003C08D6003B08D5003A08D4000A122F
:10187E008A1187230A128A15831203135708EB0065
:10188E005608EA005508E9005408E8000A128A15BD
:10189E001A230A128A158312031369088316031377
:1018AE00C60083120313680883160313C5000800CD
:1018BE00F80078080319642C652C792CF31F682C1A
:1018CE00692C792C7009FA007109FB007209FC0071
:1018DE007309FD00FA0A0319FB0A0319FC0A03191E
:1018EE00FD0A812C7308FD007208FC007108FB00D4
:1018FE007008FA007308720471047004031D882CBA
:10190E00892C922C0030F3000030F2000030F100F0
:10191E000030F000182D9630F4007408F900A42C55
:10192E000130F4007408F90701300310FD0CFC0CB3
:10193E00FB0CFA0CFF3E031D9C2CFE307D05031D97
:10194E00A92CAA2C972CC62C0130F4007408F90788
:10195E000130FA07003003180130FB07003003187E
:10196E000130FC07003003180130FD070130031071
:10197E00FD0CFC0CFB0CFA0CFF3E031DBE2CFF30C5
:10198E007D05031DCB2CCC2CAB2CD82C0130F902B1
:10199E000130F4000310FA0DFB0DFC0DFD0DF40BE0
:1019AE00D12CFC1BDB2CDC2CE22C02307902031830
:1019BE00E12CE22CCD2C7918E52CE62CEE2CFF3008
:1019CE00FA05FF30FB057F30FC05FF30FD050310E7
:1019DE00F90C7908F400F501F601F701183003103F
:1019EE00F40DF50DF60DF70DFF3E031DF62C7408E4
:1019FE00FA047508FB047608FC047708FD047808E1
:101A0E0003190A2D0B2D102DF31F0E2D0F2D102D3A
:101A1E00FD177D08F3007C08F2007B08F1007A08C0
:101A2E00F000080001300A128A150B210A128A15DD
:101A3E000A128A11EC270A128A1583160313D30190
:101A4E00D40100300A128A15A8220A128A15FF3014
:101A5E000A128A1544220A128A150A128A154D2074
:101A6E000A128A150A128A15ED210A128A15831294
:101A7E0003139F18432D442DC42D1F0C83160313DF
:101A8E00DA005A0C0F39003A031D4E2D4F2D562DEC
:101A9E00831203131F08C33904389F00672D831266
:101AAE0003131F0C83160313DA005A0C0F39013A75
:101ABE00031D622D632D672DC330831203139F0503
:101ACE00023083160313DA00DA0B6B2D000083123B
:101ADE0003139F14C42DD601D60A01300A128A159B
:101AEE00BE200A128A15133083160313D5008030D8
:101AFE00D6000A128A153C210A128A158316031380
:101B0E00D601D60A02300A128A15BE200A128A158A
:101B1E00B63083160313D5000030D6000A128A158C
:101B2E003C210A128A15D62DD601D60A01300A1288
:101B3E008A15BE200A128A15183083160313D50093
:101B4E008030D6000A128A153C210A128A15831695
:101B5E000313D601D60A02300A128A15BE200A12C3
:101B6E008A15AC3083160313D5000030D6000A1246
:101B7E008A153C210A128A15D62D6E088316031378
:101B8E00DA00DB015B08003A0319CE2DD62D5A0878
:101B9E00003A0319722D013A03199B2DD62D2130CF
:101BAE0083160313DB007530DA00DA0BDC2DDB0B4A
:101BBE00DC2DE12D3E2D0A128A11122883120313F9
:101BCE00AD002130A5002508A800B62E25302E0622
:101BDE000319F22DF32DFF2D2E08A5002D088400DC
:101BEE002508831380000130A5002508AD07B62E09
:101BFE00A9010130A007FF30200784000A128A15C0
:101C0E000A200A128A15AE00A500A6012608003A7F
:101C1E000319122EB62E2508003A0319C82E643A5F
:101C2E0003191D2E0D3A03191D2EB62E28088400F9
:101C3E0083130008AB00840A0008AC000230A50034
:101C4E002508A807AC1F2C2E2D2E362E0330A500EE
:101C5E002508A904AB09AC09AB0A0319AC0AAE01FD
:101C6E00AE0A2E08A5002507013E84000A128A1529
:101C7E000A200A128A15A6000A128A150A200A12CA
:101C8E008A15A70027082C02031D4F2E26082B02AB
:101C9E000318522E532E542E5E2E0130A500250809
:101CAE00AE0705302E06031D5D2E5E2E382E29083A
:101CBE0003390319632E642E6F2E2D30A5002D08C7
:101CCE0084002508831380000130A5002508AD0788
:101CDE002E08A5002508AA00AD2E0A30F800003007
:101CEE00F9002A08A5002507013E84000A128A156C
:101CFE000A200A128A15F0000A128A150A200A1200
:101D0E008A15F1002C08F3002B08F2000A128A152E
:101D1E00A9210A128A157108FB007008FA000A122E
:101D2E008A156F210A128A157808303E8312031322
:101D3E00A6002608AE002E08A5002D088400250852
:101D4E00831380000130A5002508AD07FF30A500E4
:101D5E002508AA072A0A031DB52EB62E742E0130A9
:101D6E00A007FF30200784000A128A150A200A12E3
:101D7E008A15A5002508AE002E08031DC72EC82EF5
:101D8E00ED2D2D0884008313800108000B1DD02E2D
:101D9E00D12EF12E0130CE004E0883120313EF0721
:101DAE0064306F06031DDC2EDD2EEC2E6E0803193B
:101DBE00E12EE32E0130E42E003083160313CE0005
:101DCE004E0883120313EE00EF010A128A15472004
:101DDE000A128A15831203130C1FF62EF72EF32FF9
:101DEE001F0C83160313CE004E0C0F39003A031D41
:101DFE00012F022F732F0A128A155B200A128A15E1
:101E0E00710883160313C6007008C500C701FF30A2
:101E1E00C8000330C9000030CA00CB00F430CC003B
:101E2E000130CD000A128A15B6230A128A158316BE
:101E3E0003134608AB004508AA006430F0000030DA
:101E4E00F1002B08F3002A08F2000A128A15A921C4
:101E5E000A128A15710883160313A9007008A800C8
:101E6E002908F1002808F0009C30F200FF30F30042
:101E7E000A128A1599200A128A15831603132A0844
:101E8E007007A6002B0803182B0A7107A7000B304A
:101E9E00CE004E0883120313A000831603132908E5
:101EAE0083120313A200831603132808831203134D
:101EBE00A10083160313270883120313A4008316AD
:101ECE000313260883120313A300B6300A128A15D1
:101EDE00E5250A128A15F02F831203131F0C8316A1
:101EEE000313CE004E0C0F39013A031D7F2F802FA6
:101EFE00F02F0A128A155B200A128A1571088316B2
:101F0E000313C6007008C500C701FF30C8000330B8
:101F1E00C9000030CA00CB00F430CC000130CD0037
:101F2E000A128A15B6230A128A1583160313460857
:101F3E00A5004508A4006430F0000030F10025082B
:101F4E00F3002408F2000A128A15A9210A128A1532
:101F5E00710883160313A3007008A2002308F10072
:101F6E002208F0009C30F200FF30F3000A128A15AE
:101F7E0099200A128A158316031324087007A000ED
:101F8E0025080318250A7107A1000B30CE004E0854
:101F9E0083120313A0008316031323088312031363
:101FAE00A20083160313220883120313A1008316C3
:101FBE000313210883120313A400831603132008AE
:101FCE0083120313A300AC300A128A15E5250A12F8
:101FDE008A15831203130C13831603135208FF0082
:101FEE0051088A00500884004F0E8300FE0E7E0EAC
:021FFE000900D8
:08400000FF3FFF3FFF3FFF3FC0
:04400E00D420FF3F7C
:00000001FF
